:1000000000800020BD0100003D880000F587000051
:10001000F5870000F5870000F5870000F5870000F0
:10002000F5870000F5870000F58700003D88000097
:100030003D880000F58700005DA0000061A0000081
:100040003D8800003D8800003D8800003D8800009C
:100050003D8800003D8800003D8800003D8800008C
:100060003D8800003D8800003D8800003D8800007C
:100070003D8800003D8800003D8800003D8800006C
:100080003D8800003D8800003D8800003D8800005C
:100090003D8800003D8800003D8800003D8800004C
:1000A000DD7A0000E97A00003D8800003D8800000C
:1000B0003D8800003D8800003D8800003D8800002C
:1000C0003D8800003D8800003D8800003D8800001C
:1000D0003D8800003D8800003D8800003D8800000C
:1000E0003D8800003D8800003D8800003D880000FC
:1000F0003D8800003D8800003D8800003D880000EC
:100100003D8800003D8800003D8800003D880000DB
:100110003D8800003D8800003D8800003D880000CB
:100120003D8800003D8800003D8800003D880000BB
:100130003D8800003D8800003D8800003D880000AB
:100140003D8800003D8800003D8800003D8800009B
:100150003D8800003D8800003D8800003D8800008B
:10016000818300002D9000003D8800003D88000044
:100170003D8800003D8800003D8800003D8800006B
:100180003D8800003D8800003D8800003D8800005B
:100190003D8800003D8800003D8800003D8800004B
:1001A0003D8800003D8800003D8800003D8800003B
:1001B0003D8800003D8800003D880000564B4CF211
:1001C000205210B51A804DF628121A8000BF00BFC9
:1001D00008F038FB514B4FF010621A60504A9A6099
:1001E000504ADA60504A136813F4807304D14F49BF
:1001F0000B604FF4A85313604D4B1A78110703D5C9
:100200001A7842F008021A704A4B4B492A221A7097
:100210004A4A4B4B8B4204D252F8040F43F8040B6A
:10022000F8E7484B484900228B4202D243F8042B9E
:10023000FAE74649464A002352F8230041F82300D2
:1002400001336F2BF8D1434B434A802103F8011B44
:100250009342FBD1414B3D4A1A60414B8A221A70AE
:10026000A3F5805324225A70A0221A709A7992071B
:10027000FCD59A79D406FCD43A4A937903F00C035E
:10028000082B384BF9D105221A7143225A719A79F9
:100290009006FCD5334A9179324B4906FBD5324A58
:1002A0004FF0817111600521516020221A709A79F6
:1002B00002F00C020C2AFAD12C4B2D4A1A602D4B5D
:1002C0002D4A1A6000225A60072243F8042C2B4A58
:1002D000C3F80C2D62B608F05FFD144B1B68DA07FB
:1002E00005D5274808F0ECFB264B274A1A60274B18
:1002F0001B785B0609D5234C234B22689A4204D114
:100300001F4808F0DDFB002323600CF099F808F08B
:100310009FFA08F0CDF9FEE70E200540308004403A
:10032000823F04000100002B10D0034014D0034092
:1003300002D0074000E007402894FF1F041101008D
:100340002087FF1F2894FF1F7C9EFF1F0082FF1F36
:100350000000000000E400E05FE400E008ED00E0E1
:1003600000500640004006404480044004800440A1
:10037000C010050014E000E03F190100000020203B
:1003800094BCA5601CE00340A5C3945A00F007404C
:10039000FFFFFFFFFFFFFFFFFFFFFFFFFFFFFFFF6D
:1003A000FFFFFFFFFFFFFFFFFFFFFFFFFFFFFFFF5D
:1003B000FFFFFFFFFFFFFFFFFFFFFFFFFFFFFFFF4D
:1003C000FFFFFFFFFFFFFFFFFFFFFFFFFFFFFFFF3D
:1003D000FFFFFFFFFFFFFFFFFFFFFFFFFFFFFFFF2D
:1003E000FFFFFFFFFFFFFFFFFFFFFFFFFFFFFFFF1D
:1003F000FFFFFFFFFFFFFFFFFFFFFFFFFFFFFFFF0D
:10040000FFFFFFFFFFFFFFFFFFFFFFFFDEF9FFFF23
:1004100010B5054C237833B9044B13B10448AFF33E
:1004200000800123237010BD2894FF1F00000000EE
:1004300000110100084B10B51BB108490848AFF383
:1004400000800848036803B910BD074B002BFBD0A0
:10045000BDE81040184700BF000000002C94FF1FAB
:10046000001101002894FF1F0000000043680B707A
:1004700043681B0A4B70C3888B70C379CB70836849
:100480000B7183681B0A4B7143898B71C37ACB71E3
:10049000082070470B7843604A7843EA02234360A0
:1004A0008A7843EA02434360CA7843EA02634360BE
:1004B0000B7983604A7943EA022383608A7943EAAD
:1004C00002438360CA7943EA02638360082070476D
:1004D000004870475007010000487047600701005E
:1004E000F0B50C460A788280064614F8010F002306
:1004F00042EA0022B2801A4614F8010F98400833ED
:10050000202B42EA0002F7D1971D062F58D901F19E
:10051000050E551D73464C1913F8010F03F8010C15
:10052000A342F9D100234B5518460D44C6F808E004
:1005300015F8014F84400830202843EA0403F7D11E
:10054000381D0344834209D909320A440446013460
:1005500012F8015F02F8015CA342F8D80138CF1805
:100560000024084407F8014C2246F06017F8015BAC
:1005700095400832202A44EA0504F7D1181D0444A6
:10058000A04209D203330B440246013213F8015F43
:1005900003F8015CA242F8D30D1901380844002386
:1005A00005F8013C3061A8786B780A5DED780104AC
:1005B00041EA0323134343EA0563201D7361F0BD41
:1005C000551D01F1050EADE7004870478407010095
:1005D00000487047A00701000B78F0B403710023B6
:1005E00006460C461D4614F8012F9A400833202B6E
:1005F00045EA0205F7D1681D052801F1040708D96D
:100600002C1D3B460C4413F8012F03F8012C9C428F
:10061000F9D10D4400232B71B760F0BC704700BFC7
:1006200000487047C407010000487047D807010020
:10063000004870475C0A010000487047FC07010051
:1006400043680B701A0C10B41C0A1B0E4C708A7095
:10065000CB7083680B711C0A1A0C1B0E4C718A71CB
:10066000CB71C3680B72180A1A0C1B0E48728A727F
:100670000C20CB7210BC70470B6843604B688360E2
:100680008B68C3600C207047004870472008010049
:100690000048704738080100004870475C080100B6
:1006A000004870477408010000487047980801002E
:1006B00000487047AC08010043680B701A0C10B476
:1006C0001C0A1B0E4C708A70CB7083680B711C0A5D
:1006D0001A0C1B0E4C718A71CB71C3680B72180A0D
:1006E0001A0C1B0E48728A720C20CB7210BC704719
:1006F0000B6843604B6883608B68C3600C20704755
:1007000000487047D008010000487047E008010029
:1007100000487047040901000048704714090100AF
:10072000F0B50A4B0A4F1B680A4D0B498668C4682E
:10073000026A2E6083B00C600193DDF804E0074B81
:10074000C7F800E01A6003B0F0BD00BF0C9DFF1FAA
:10075000E494FF1F209CFF1F249CFF1F2C9BFF1F66
:1007600090F8F804704700BF006A7047004870476F
:10077000D008010000487047E0080100406B704756
:10078000004870479808010000487047AC08010015
:1007900009F062BA43682DE9F0470B7043681B0A01
:1007A0004B70C3888B70C379CB704368002B00F00B
:1007B00085800A4600250426C36853F82530137146
:1007C0001C0C1F0A1B0E94715771D37143680135BD
:1007D000AB42344602F1040206F10406ECD804F1FF
:1007E000080204F1050A04F1060904F1070804F1FE
:1007F000090C04F10A0E04F10B0517460C340369C9
:100800008B5503691B0A01F80A30438A01F8093045
:10081000C37C01F808300369F3B101EB070E75469C
:100820000022836953F822300EF822301C0C1E0A75
:100830001B0EAC706E70EB700369013293423C4644
:1008400005F1040507F10407EBD804F1050C04F1E8
:10085000060EE51D3A460834C3698B54C3691B0A6A
:1008600001F80C30C38B01F80E30C37F4B55C369C0
:100870000BB30F4680460026D8F8243053F82600E4
:100880000CF05EFBB10005463A19002325FA03F08F
:100890000833202B02F8010BF8D1D8F824300434A7
:1008A000381959582A4607F00BFFD8F81C30013682
:1008B000B3422C44E0D82046BDE8F0870822174612
:1008C0000C240B254FF00A0E4FF0090C4FF00708CF
:1008D0004FF006094FF0050A042690E770B503793A
:1008E0000B70064680680D460CF02AFB2A4604462B
:1008F000002324FA03F10833202B02F8011FF8D15A
:10090000B168681D224607F0DBFE601D70BD00BFA8
:10091000F8B583880B7083881B0A4B700646806885
:100920000D460CF00DFB030E010A020C6B71A87052
:100930002A71E97002460446B168A81D07F0C0FE9E
:10094000F0680CF0FDFA611D0246294406340023CC
:1009500022FA03F00833202B01F8010FF8D10434F8
:100960002819F168144407F0ABFE30690CF0E8FA7E
:100970002A190746002327FA03F10833202B02F82F
:10098000011BF8D1043428193A46316907F098FE62
:10099000381973692B540544190A1A0C1B0E697017
:1009A000AA70EB700430F8BD084609F03FBA00BFEA
:1009B0002DE9F04F43680C689C4283B005460E4613
:1009C00000F2B3806C60002C00F0B88005F1080CD8
:1009D000334600274FF0040E9C795A79197993F821
:1009E0000780E868240444EA02220A4342EA0862D3
:1009F000AA60DCF8002040F827206A680137BA4274
:100A0000714603F104030EF1040EE5D801F1080864
:100A100047464B1D881DCA1D01F1090A01F10A0B49
:100A200001F10B0901F10C04305CF35C16F80E10B7
:100A300016F802E02A69000440EA03230B4343EA64
:100A40000E63934200F290802B613BB305F1140CCE
:100A5000F3194FF0000E9C785A78197893F80380B8
:100A6000A869240444EA02220A4342EA08626A614D
:100A7000DCF8002040F82E202A690EF1010E7245A4
:100A80003C4603F1040307F10407E4D804F1050A26
:100A900004F1060B04F10709B846083416F80B20D8
:100AA00016F80A0016F8083016F80970E9691204F9
:100AB00042EA0022134343EA07678F424ED8EF61B0
:100AC0007FB30027BC4605F1200E002319463019DC
:100AD00010F8012B9A400833202B41EA0201F7D18C
:100AE00004F104084144884509D2E31C33444246DA
:100AF000013213F8010F03F8010C8A42F8D372187F
:100B000008F1FF3802F801CC06EB08032B626A6A91
:100B1000DEF8003042F82730EB690137BB420C4663
:100B2000D3D8204603B0BDE8F08FA100C0680BF019
:100B3000C1FF6C60E860002C7FF448AF4FF00808FC
:100B400047460C244FF00B094FF00A0B4FF0090AEF
:100B50000722062005234FF0040E65E7B900686AF6
:100B60000BF0A8FF6862AAE79900A86901930BF04F
:100B7000A1FF019BA86167E710B504460C48A36874
:100B8000E268616807F090FDA368E268616809485F
:100B900007F08AFDA368E2686168074807F084FDF2
:100BA000A368E26861680548BDE8104007F07CBDB5
:100BB000789BFF1FC89BFF1F1095FF1F8895FF1F85
:100BC0000B6803614B6843618B688361C3690C30B8
:100BD000184700BFF8B506464068C0F3C7520C4638
:100BE0000346002A58D002F56072110149B2C2F3DF
:100BF0000715C3F3C34211435F010022A171D9104D
:100C0000DB12217122706270A270E77063710021A3
:100C10000BF0C2FB002848D1E571B068C0F3C752A1
:100C20000346002A3ED002F56072110149B2C2F3B8
:100C30000715C3F3C34211435F010022A173D9100A
:100C4000DB12217322726272A272E7726373002157
:100C50000BF0A2FB90BBE573F068C0F3C7520346EC
:100C6000EAB102F56072110149B2C2F30715C3F38C
:100C7000C34211435F010022DE10DB12A175227412
:100C80006274A274E7742675637500210BF084FB0F
:100C900078B9E5751820F8BD15461146A9E715463F
:100CA0001146E4E715461146C3E765F07F02E2719D
:100CB000B3E765F07F02E2751820F8BD65F07F02AA
:100CC000E273C9E7CA78520970B4426103460879F1
:100CD00042EAC0025A61487942EAC02058618A79E2
:100CE000D20402F4F00202435A61CD798E792C01CC
:100CF00004F4FE6454EA161403F10C0005D0A4F5C4
:100D0000607442EAC4525A61CD7925F07F0542EA07
:100D100005625A61CA7A52099A610C7B42EAC4029E
:100D20009A614C7B42EAC4249C618A7BD20402F41F
:100D3000F00222439A61CD7B8E7B2C0104F4FE6489
:100D400054EA161405D0A4F5607442EAC4529A61BC
:100D5000CD7B25F07F0542EA05629A61CA7C520983
:100D6000DA610C7D42EAC402DA614C7D42EAC424B5
:100D7000DC618A7DD20402F4F0022243DA61CD7D87
:100D80008E7D2C0104F4FE6454EA161405D0A4F5FB
:100D9000607442EAC452DA61CD7D25F07F0542EAF3
:100DA0000562DA61CA7E52095A620C7F42EAC402C5
:100DB0005A624C7F42EAC4245C628A7FD20402F405
:100DC000F00222435A62CD7F8E7F2C0104F4FE6430
:100DD00054EA161405D0A4F5607442EAC4525A626B
:100DE000CD7F25F07F0542EA05625A6291F8232003
:100DF00052099A6291F8244042EAC4029A6291F838
:100E0000254042EAC4249C6291F82620D20402F4D0
:100E1000F00222439A6291F8275091F826602C0143
:100E200004F4FE6454EA161406D0A4F5607442EA91
:100E3000C4529A6291F8275025F07F0542EA056274
:100E40009A6291F82B205209DA6291F82C4042EA1A
:100E5000C402DA6291F82D4042EAC424DC6291F8BF
:100E60002E20D20402F4F0022243DA6291F82F50CD
:100E700091F82E602C0104F4FE6454EA161406D096
:100E8000A4F5607442EAC452DA6291F82F5025F05A
:100E90007F0542EA0562DA6270BC1B6B184700BF2F
:100EA000CB785B0930B483600A7943EAC20383607C
:100EB0004A7943EAC22282608B79DB0403F4F003AF
:100EC00013438360CC798D79220102F4FE6252EAE9
:100ED000151205D0A2F5607243EAC2538360CC7943
:100EE00024F07F0443EA04638360CB7A5B09C36028
:100EF0000A7B43EAC203C3604A7B43EAC222C26060
:100F00008B7BDB0403F4F0031343C360CC7B8D7B4A
:100F1000220102F4FE6252EA151205D0A2F56072B7
:100F200043EAC253C360CC7B24F07F0443EA0463EA
:100F3000C360CB7C5B0903610A7D43EAC2030361A2
:100F40004A7D43EAC22202618B7DDB0403F4F00395
:100F500013430361CC7D8D7D220102F4FE6252EACF
:100F6000151205D0A2F5607243EAC2530361CC7D2D
:100F700024F07F0443EA04630361CB7E5B09836151
:100F80000A7F43EAC20383614A7F43EAC222826145
:100F90008B7FDB0403F4F00313438361CC7F8D7FED
:100FA000220102F4FE6252EA151205D0A2F5607227
:100FB00043EAC2538361CC7F24F07F0443EA046395
:100FC000836191F823305B09C36191F8242043EADF
:100FD000C203C36191F8252043EAC222C26191F89D
:100FE0002630DB0403F4F0031343C36191F8274078
:100FF00091F82650220102F4FE6252EA151206D040
:10100000A2F5607243EAC253C36191F8274024F00D
:101010007F0443EA0463C36191F82B305B090362E8
:1010200091F82C2043EAC203036291F82D2043EA91
:10103000C222026291F82E30DB0403F4F003134362
:10104000036291F82F4091F82E50220102F4FE62C3
:1010500052EA151206D0A2F5607243EAC253036247
:1010600091F82F4024F07F0443EA0463036230BC0C
:1010700030207047CB785B0930B443600A7943EA8B
:10108000C20343604A7943EAC22242608B79DB049F
:1010900003F4F00313434360CC798D79220102F409
:1010A000FE6252EA151205D0A2F5607243EAC253FD
:1010B0004360CC7924F07F0443EA04634360CB7A35
:1010C0005B0983600A7B43EAC20383604A7B43EA8D
:1010D000C22282608B7BDB0403F4F0031343836042
:1010E000CC7B8D7B220102F4FE6252EA151205D000
:1010F000A2F5607243EAC2538360CC7B24F07F0484
:1011000043EA04638360CB7C5B09C3600A7D43EAE6
:10111000C203C3604A7D43EAC222C2608B7DDB0406
:1011200003F4F0031343C360CC7D8D7D220102F4F0
:10113000FE6252EA151205D0A2F5607243EAC2536C
:10114000C360CC7D24F07F0443EA0463C36030BCF9
:1011500018207047F8B505468068C0F3C7520C46A2
:101160000346002A00F0CF8002F56072110149B2F7
:10117000C2F30716C3F3C34211435F010022A171FA
:10118000D910DB12217122706270A270E770637156
:1011900000210BF001F9002840F0C780E671E868F3
:1011A000C0F3C7520346002A00F0BC8002F560720B
:1011B000110149B2C2F30716C3F3C34211435F01E1
:1011C0000022A173D910DB12217322726272A27203
:1011D000E772637300210BF0DFF8002840F0BC8059
:1011E000E6732869C0F3C7520346002A00F09780CF
:1011F00002F56072110149B2C2F30716C3F3C3428C
:1012000011435F010022A175D910DB1221752274F0
:101210006274A274E774637500210BF0BDF80028B6
:1012200040F09680E675A869C0F3C7520346002ACD
:1012300072D002F56072110149B2C2F30716C3F30E
:10124000C34211435F010022A177D910DB1221773D
:1012500022766276A276E776637700210BF09CF81F
:10126000002871D1E677E869C0F3C7520346002A27
:101270004FD002F56072110149B2C2F30716C3F3F1
:10128000C34211435F01002284F82610D910DB12FB
:1012900084F8241084F8202084F8212084F8222067
:1012A00084F8237084F8253000210BF075F80028AD
:1012B00045D184F82760286AC0F3C75203462AB391
:1012C00002F56072110149B2C2F30715C3F3C342BC
:1012D00011435F010022DE10DB1284F82E1084F827
:1012E000282084F8292084F82A2084F82B7084F898
:1012F0002C6084F82D3000210BF04EF8C8B984F82A
:101300002F503020F8BD1646114633E715461146DA
:10131000DCE716461146B2E7164611468FE7164639
:1013200011466BE71646114646E766F07F02E2710A
:1013300035E765F07F0284F82F203020F8BD66F095
:101340007F0284F82720B6E766F07F02E2778AE71B
:1013500066F07F02E27566E766F07F02E27340E7BF
:10136000F8B505468068C0F3C7520C460346002A0C
:1013700000F04D8102F56072110149B2C2F3071607
:10138000C3F3C34211435F010022A171D910DB12E4
:10139000217122706270A270E770637100210AF0FF
:1013A000FBFF002840F04E81E671E868C0F3C752A9
:1013B0000346002A00F0438102F56072110149B230
:1013C000C2F30716C3F3C34211435F010022A173A6
:1013D000D910DB12217322726272A272E7726373F8
:1013E00000210AF0D9FF002840F05281E6732869F5
:1013F000C0F3C7520346002A00F01E8102F5607256
:10140000110149B2C2F30716C3F3C34211435F018E
:101410000022A175D910DB12217522746274A274A6
:10142000E774637500210AF0B7FF002840F02C81B3
:10143000E675A869C0F3C7520346002A00F0F98098
:1014400002F56072110149B2C2F30716C3F3C34239
:1014500011435F010022A177D910DB122177227698
:101460006276A276E776637700210AF095FF00287E
:1014700040F00681E677E869C0F3C7520346002AC8
:1014800000F0D48002F56072110149B2C2F3071670
:10149000C3F3C34211435F01002284F82610D91020
:1014A000DB1284F8241084F8202084F8212084F8AA
:1014B000222084F8237084F8253000210AF06CFF84
:1014C000002840F0D88084F82760286AC0F3C7520B
:1014D0000346002A00F0A78002F56072110149B2AC
:1014E000C2F30716C3F3C34211435F01002284F81D
:1014F0002E10D910DB1284F82C1084F8282084F8E0
:10150000292084F82A2084F82B7084F82D300021BB
:101510000AF042FF002840F0A98084F82F60A86AF2
:10152000C0F3C7520346002A7AD002F56072110157
:1015300049B2C2F30716C3F3C34211435F0100224D
:1015400084F83610D910DB1284F8341084F8302077
:1015500084F8312084F8322084F8337084F83530F0
:1015600000210AF019FF00287BD184F83760E86A6F
:10157000C0F3C7520346002A4FD002F56072110132
:1015800049B2C2F30716C3F3C34211435F010022FD
:1015900084F83E10D910DB1284F83C1084F838200F
:1015A00084F8392084F83A2084F83B7084F83D3080
:1015B00000210AF0F1FE00284ED184F83F60286B2C
:1015C000C0F3C75203462AB302F56072110149B253
:1015D000C2F30715C3F3C34211435F010022DE10BB
:1015E000DB1284F8461084F8402084F8412084F807
:1015F000422084F8437084F8446084F84530002128
:101600000AF0CAFE10BB84F847504820F8BD1646C1
:101610001146B5E615461146DCE716461146B2E717
:101620001646114687E7164611465BE716461146F1
:101630002EE71646114609E716461146E4E6164619
:101640001146BFE666F07F02E271AEE665F07F020A
:1016500084F847204820F8BD66F07F0284F83F20D8
:10166000ADE766F07F0284F8372080E766F07F02FE
:1016700084F82F2053E766F07F0284F8272024E7C0
:1016800066F07F02E277F6E666F07F02E275D0E66A
:1016900066F07F02E273AAE6CB785B0930B4836020
:1016A0000A7943EAC20383604A7943EAC22282602C
:1016B0008B79DB0403F4F00313438360CC798D79D9
:1016C000220102F4FE6252EA151205D0A2F5607200
:1016D00043EAC2538360CC7924F07F0443EA046375
:1016E0008360CB7A5B09C3600A7B43EAC203C360B1
:1016F0004A7B43EAC222C2608B7BDB0403F4F00323
:101700001343C360CC7B8D7B220102F4FE6252EA5C
:10171000151205D0A2F5607243EAC253C360CC7BB8
:1017200024F07F0443EA0463C360CB7C5B0903615C
:101730000A7D43EAC20303614A7D43EAC222026191
:101740008B7DDB0403F4F00313430361CC7D8D7DBB
:10175000220102F4FE6252EA151205D0A2F560726F
:1017600043EAC2530361CC7D24F07F0443EA04635F
:101770000361CB7E5B0983610A7F43EAC203836115
:101780004A7F43EAC22282618B7FDB0403F4F003C9
:1017900013438361CC7F8D7F220102F4FE6252EA03
:1017A000151205D0A2F5607243EAC2538361CC7F63
:1017B00024F07F0443EA0463836191F823305B09DA
:1017C000C36191F8242043EAC203C36191F8252044
:1017D00043EAC222C26191F82630DB0403F4F0032D
:1017E0001343C36191F8274091F82650220102F477
:1017F000FE6252EA151206D0A2F5607243EAC253A5
:10180000C36191F8274024F07F0443EA0463C36175
:1018100091F82B305B09036291F82C2043EAC20354
:10182000036291F82D2043EAC222026291F82E3021
:10183000DB0403F4F0031343036291F82F4091F8A3
:101840002E50220102F4FE6252EA151206D0A2F5D1
:10185000607243EAC253036291F82F4024F07F0480
:1018600043EA0463036291F833305B09836291F8C1
:10187000342043EAC203836291F8352043EAC2224E
:10188000826291F83630DB0403F4F0031343836281
:1018900091F8374091F83650220102F4FE6252EA84
:1018A000151206D0A2F5607243EAC253836291F822
:1018B000374024F07F0443EA0463836291F83B30AD
:1018C0005B09C36291F83C2043EAC203C36291F80A
:1018D0003D2043EAC222C26291F83E30DB0403F4A9
:1018E000F0031343C36291F83F4091F83E50220148
:1018F00002F4FE6252EA151206D0A2F5607243EAC3
:10190000C253C36291F83F4024F07F0443EA04636A
:10191000C36291F843305B09036391F8442043EAC2
:10192000C203036391F8452043EAC222026391F89F
:101930004630DB0403F4F0031343036391F847409C
:1019400091F84650220102F4FE6252EA151206D0C6
:10195000A2F5607243EAC253036391F8474024F052
:101960007F0443EA0463036330BC4820704700BF30
:10197000F0B585B0364A01920368364D03950322CF
:101980008DF808201B6834498B425AD10023382136
:10199000044680F8232205F1300E80F8241280F8E6
:1019A000253280F8263280F8273200F50A772E4655
:1019B0000FCE764538607960BA60FB60354607F136
:1019C0001007F4D103CD00227960C2234FF0FF0E3F
:1019D000FE263D250721386084F8203284F81CE279
:1019E00084F81D6284F81E5284F81F2284F8222293
:1019F00084F8211204F2212304F25F2001E013F89D
:101A0000011F83420A44FAD1D243144E84F8602263
:101A100004F21B2504F5187703E008F007FABD422D
:101A20000BD0626815F8011F13681B68B3420846A3
:101A3000F3D010469847BD42F3D14FF0FF3005B0C8
:101A4000F0BD01AA072198474FF0FF3005B0F0BD67
:101A50006C06010038090100E92B0000A90900000B
:101A60001F4B10B49A6A1368506819780478507A3A
:101A7000137A044201EA03011AD0937A03F00303B4
:101A800009B143F0040343F008039910013B91723C
:101A90000D2B0BD8DFE803F01E0719070A141E1ED2
:101AA000140A0719071ED368013BD36010BC7047A6
:101AB000937A03F003030029E7D043F00403E4E73B
:101AC000D36810BC023BD3607047D36810BC0233AC
:101AD000D3607047D36810BC0133D360704700BF38
:101AE000509CFF1F1F4B10B4DA6A136850681978B6
:101AF0000478507A137A044201EA03011AD0937AE7
:101B000003F0030309B143F0040343F00803991001
:101B1000013B91720D2B0BD8DFE803F01E0719076C
:101B20000A141E1E140A0719071ED368013BD3604E
:101B300010BC7047937A03F003030029E7D043F009
:101B40000403E4E7D36810BC023BD3607047D3685A
:101B500010BC0233D3607047D36810BC0133D3602C
:101B6000704700BF509CFF1F1F4B10B41A6B1368C7
:101B7000506819780478507A137A044201EA030114
:101B80001AD0937A03F0030309B143F0040343F03E
:101B900008039910013B91720D2B0BD8DFE803F07D
:101BA0001E0719070A141E1E140A0719071ED368F8
:101BB000013BD36010BC7047937A03F00303002904
:101BC000E7D043F00403E4E7D36810BC023BD360E2
:101BD0007047D36810BC0233D3607047D36810BC21
:101BE0000133D360704700BF509CFF1F1F4B10B4E0
:101BF0005A6B1368506819780478507A137A044243
:101C000001EA03011AD0937A03F0030309B143F008
:101C1000040343F008039910013B91720D2B0BD87C
:101C2000DFE803F01E0719070A141E1E140A07191D
:101C3000071ED368013BD36010BC7047937A03F052
:101C400003030029E7D043F00403E4E7D36810BCA2
:101C5000023BD3607047D36810BC0233D360704737
:101C6000D36810BC0133D360704700BF509CFF1F86
:101C70001F4B10B49A6B1368506819780478507A27
:101C8000137A044201EA03011AD0937A03F00303A2
:101C900009B143F0040343F008039910013B91722A
:101CA0000D2B0BD8DFE803F01E0719070A141E1EC0
:101CB000140A0719071ED368013BD36010BC704794
:101CC000937A03F003030029E7D043F00403E4E729
:101CD000D36810BC023BD3607047D36810BC02339A
:101CE000D3607047D36810BC0133D360704700BF26
:101CF000509CFF1F1F4B10B4DA6B136850681978A3
:101D00000478507A137A044201EA03011AD0937AD4
:101D100003F0030309B143F0040343F008039910EF
:101D2000013B91720D2B0BD8DFE803F01E0719075A
:101D30000A141E1E140A0719071ED368013BD3603C
:101D400010BC7047937A03F003030029E7D043F0F7
:101D50000403E4E7D36810BC023BD3607047D36848
:101D600010BC0233D3607047D36810BC0133D3601A
:101D7000704700BF509CFF1F1F4B10B41A6C1368B4
:101D8000506819780478507A137A044201EA030102
:101D90001AD0937A03F0030309B143F0040343F02C
:101DA00008039910013B91720D2B0BD8DFE803F06B
:101DB0001E0719070A141E1E140A0719071ED368E6
:101DC000013BD36010BC7047937A03F003030029F2
:101DD000E7D043F00403E4E7D36810BC023BD360D0
:101DE0007047D36810BC0233D3607047D36810BC0F
:101DF0000133D360704700BF509CFF1F1F4B10B4CE
:101E00005A6C1368506819780478507A137A04422F
:101E100001EA03011AD0937A03F0030309B143F0F6
:101E2000040343F008039910013B91720D2B0BD86A
:101E3000DFE803F01E0719070A141E1E140A07190B
:101E4000071ED368013BD36010BC7047937A03F040
:101E500003030029E7D043F00403E4E7D36810BC90
:101E6000023BD3607047D36810BC0233D360704725
:101E7000D36810BC0133D360704700BF509CFF1F74
:101E80001F4B10B49A6C1368506819780478507A14
:101E9000137A044201EA03011AD0937A03F0030390
:101EA00009B143F0040343F008039910013B917218
:101EB0000D2B0BD8DFE803F01E0719070A141E1EAE
:101EC000140A0719071ED368013BD36010BC704782
:101ED000937A03F003030029E7D043F00403E4E717
:101EE000D36810BC023BD3607047D36810BC023388
:101EF000D3607047D36810BC0133D360704700BF14
:101F0000509CFF1F1F4B10B4DA6C1368506819788F
:101F10000478507A137A044201EA03011AD0937AC2
:101F200003F0030309B143F0040343F008039910DD
:101F3000013B91720D2B0BD8DFE803F01E07190748
:101F40000A141E1E140A0719071ED368013BD3602A
:101F500010BC7047937A03F003030029E7D043F0E5
:101F60000403E4E7D36810BC023BD3607047D36836
:101F700010BC0233D3607047D36810BC0133D36008
:101F8000704700BF509CFF1F1F4B10B41A6D1368A1
:101F9000506819780478507A137A044201EA0301F0
:101FA0001AD0937A03F0030309B143F0040343F01A
:101FB00008039910013B91720D2B0BD8DFE803F059
:101FC0001E0719070A141E1E140A0719071ED368D4
:101FD000013BD36010BC7047937A03F003030029E0
:101FE000E7D043F00403E4E7D36810BC023BD360BE
:101FF0007047D36810BC0233D3607047D36810BCFD
:102000000133D360704700BF509CFF1F1F4B10B4BB
:102010005A6D1368506819780478507A137A04421C
:1020200001EA03011AD0937A03F0030309B143F0E4
:10203000040343F008039910013B91720D2B0BD858
:10204000DFE803F01E0719070A141E1E140A0719F9
:10205000071ED368013BD36010BC7047937A03F02E
:1020600003030029E7D043F00403E4E7D36810BC7E
:10207000023BD3607047D36810BC0233D360704713
:10208000D36810BC0133D360704700BF509CFF1F62
:102090001F4B10B49A6D1368506819780478507A01
:1020A000137A044201EA03011AD0937A03F003037E
:1020B00009B143F0040343F008039910013B917206
:1020C0000D2B0BD8DFE803F01E0719070A141E1E9C
:1020D000140A0719071ED368013BD36010BC704770
:1020E000937A03F003030029E7D043F00403E4E705
:1020F000D36810BC023BD3607047D36810BC023376
:10210000D3607047D36810BC0133D360704700BF01
:10211000509CFF1F1F4B10B4DA6D1368506819787C
:102120000478507A137A044201EA03011AD0937AB0
:1021300003F0030309B143F0040343F008039910CB
:10214000013B91720D2B0BD8DFE803F01E07190736
:102150000A141E1E140A0719071ED368013BD36018
:1021600010BC7047937A03F003030029E7D043F0D3
:102170000403E4E7D36810BC023BD3607047D36824
:1021800010BC0233D3607047D36810BC0133D360F6
:10219000704700BF509CFF1F1F4B10B41A6E13688E
:1021A000506819780478507A137A044201EA0301DE
:1021B0001AD0937A03F0030309B143F0040343F008
:1021C00008039910013B91720D2B0BD8DFE803F047
:1021D0001E0719070A141E1E140A0719071ED368C2
:1021E000013BD36010BC7047937A03F003030029CE
:1021F000E7D043F00403E4E7D36810BC023BD360AC
:102200007047D36810BC0233D3607047D36810BCEA
:102210000133D360704700BF509CFF1F1F4B10B4A9
:102220005A6E1368506819780478507A137A044209
:1022300001EA03011AD0937A03F0030309B143F0D2
:10224000040343F008039910013B91720D2B0BD846
:10225000DFE803F01E0719070A141E1E140A0719E7
:10226000071ED368013BD36010BC7047937A03F01C
:1022700003030029E7D043F00403E4E7D36810BC6C
:10228000023BD3607047D36810BC0233D360704701
:10229000D36810BC0133D360704700BF509CFF1F50
:1022A0001F4B10B49A681368506819780478507AF4
:1022B000137A044201EA03011AD0937A03F003036C
:1022C00009B143F0040343F008039910013B9172F4
:1022D0000D2B0BD8DFE803F01E0719070A141E1E8A
:1022E000140A0719071ED368013BD36010BC70475E
:1022F000937A03F003030029E7D043F00403E4E7F3
:10230000D36810BC023BD3607047D36810BC023363
:10231000D3607047D36810BC0133D360704700BFEF
:10232000509CFF1F1F4B10B4DA681368506819786F
:102330000478507A137A044201EA03011AD0937A9E
:1023400003F0030309B143F0040343F008039910B9
:10235000013B91720D2B0BD8DFE803F01E07190724
:102360000A141E1E140A0719071ED368013BD36006
:1023700010BC7047937A03F003030029E7D043F0C1
:102380000403E4E7D36810BC023BD3607047D36812
:1023900010BC0233D3607047D36810BC0133D360E4
:1023A000704700BF509CFF1F1F4B10B41A69136881
:1023B000506819780478507A137A044201EA0301CC
:1023C0001AD0937A03F0030309B143F0040343F0F6
:1023D00008039910013B91720D2B0BD8DFE803F035
:1023E0001E0719070A141E1E140A0719071ED368B0
:1023F000013BD36010BC7047937A03F003030029BC
:10240000E7D043F00403E4E7D36810BC023BD36099
:102410007047D36810BC0233D3607047D36810BCD8
:102420000133D360704700BF509CFF1F1F4B10B497
:102430005A691368506819780478507A137A0442FC
:1024400001EA03011AD0937A03F0030309B143F0C0
:10245000040343F008039910013B91720D2B0BD834
:10246000DFE803F01E0719070A141E1E140A0719D5
:10247000071ED368013BD36010BC7047937A03F00A
:1024800003030029E7D043F00403E4E7D36810BC5A
:10249000023BD3607047D36810BC0233D3607047EF
:1024A000D36810BC0133D360704700BF509CFF1F3E
:1024B0001F4B10B49A691368506819780478507AE1
:1024C000137A044201EA03011AD0937A03F003035A
:1024D00009B143F0040343F008039910013B9172E2
:1024E0000D2B0BD8DFE803F01E0719070A141E1E78
:1024F000140A0719071ED368013BD36010BC70474C
:10250000937A03F003030029E7D043F00403E4E7E0
:10251000D36810BC023BD3607047D36810BC023351
:10252000D3607047D36810BC0133D360704700BFDD
:10253000509CFF1F1F4B10B4DA691368506819785C
:102540000478507A137A044201EA03011AD0937A8C
:1025500003F0030309B143F0040343F008039910A7
:10256000013B91720D2B0BD8DFE803F01E07190712
:102570000A141E1E140A0719071ED368013BD360F4
:1025800010BC7047937A03F003030029E7D043F0AF
:102590000403E4E7D36810BC023BD3607047D36800
:1025A00010BC0233D3607047D36810BC0133D360D2
:1025B000704700BF509CFF1F1F4B10B41A6A13686E
:1025C000506819780478507A137A044201EA0301BA
:1025D0001AD0937A03F0030309B143F0040343F0E4
:1025E00008039910013B91720D2B0BD8DFE803F023
:1025F0001E0719070A141E1E140A0719071ED3689E
:10260000013BD36010BC7047937A03F003030029A9
:10261000E7D043F00403E4E7D36810BC023BD36087
:102620007047D36810BC0233D3607047D36810BCC6
:102630000133D360704700BF509CFF1F1F4B10B485
:102640005A6A1368506819780478507A137A0442E9
:1026500001EA03011AD0937A03F0030309B143F0AE
:10266000040343F008039910013B91720D2B0BD822
:10267000DFE803F01E0719070A141E1E140A0719C3
:10268000071ED368013BD36010BC7047937A03F0F8
:1026900003030029E7D043F00403E4E7D36810BC48
:1026A000023BD3607047D36810BC0233D3607047DD
:1026B000D36810BC0133D360704700BF509CFF1F2C
:1026C0001F4B10B41A681368506819780478507A50
:1026D000137A044201EA03011AD0937A03F0030348
:1026E00009B143F0040343F008039910013B9172D0
:1026F0000D2B0BD8DFE803F01E0719070A141E1E66
:10270000140A0719071ED368013BD36010BC704739
:10271000937A03F003030029E7D043F00403E4E7CE
:10272000D36810BC023BD3607047D36810BC02333F
:10273000D3607047D36810BC0133D360704700BFCB
:10274000509CFF1F1F4B10B45A68136850681978CB
:102750000478507A137A044201EA03011AD0937A7A
:1027600003F0030309B143F0040343F00803991095
:10277000013B91720D2B0BD8DFE803F01E07190700
:102780000A141E1E140A0719071ED368013BD360E2
:1027900010BC7047937A03F003030029E7D043F09D
:1027A0000403E4E7D36810BC023BD3607047D368EE
:1027B00010BC0233D3607047D36810BC0133D360C0
:1027C000704700BF509CFF1F1F4B10B49A6E1368D8
:1027D000506819780478507A137A044201EA0301A8
:1027E0001AD0937A03F0030309B143F0040343F0D2
:1027F00008039910013B91720D2B0BD8DFE803F011
:102800001E0719070A141E1E140A0719071ED3688B
:10281000013BD36010BC7047937A03F00303002997
:10282000E7D043F00403E4E7D36810BC023BD36075
:102830007047D36810BC0233D3607047D36810BCB4
:102840000133D360704700BF509CFF1F1F4B10B473
:10285000DA6E1368506819780478507A137A044253
:1028600001EA03011AD0937A03F0030309B143F09C
:10287000040343F008039910013B91720D2B0BD810
:10288000DFE803F01E0719070A141E1E140A0719B1
:10289000071ED368013BD36010BC7047937A03F0E6
:1028A00003030029E7D043F00403E4E7D36810BC36
:1028B000023BD3607047D36810BC0233D3607047CB
:1028C000D36810BC0133D360704700BF509CFF1F1A
:1028D0001F4B10B41A6F1368506819780478507A37
:1028E000137A044201EA03011AD0937A03F0030336
:1028F00009B143F0040343F008039910013B9172BE
:102900000D2B0BD8DFE803F01E0719070A141E1E53
:10291000140A0719071ED368013BD36010BC704727
:10292000937A03F003030029E7D043F00403E4E7BC
:10293000D36810BC023BD3607047D36810BC02332D
:10294000D3607047D36810BC0133D360704700BFB9
:10295000509CFF1F1F4B10B45A6F136850681978B2
:102960000478507A137A044201EA03011AD0937A68
:1029700003F0030309B143F0040343F00803991083
:10298000013B91720D2B0BD8DFE803F01E071907EE
:102990000A141E1E140A0719071ED368013BD360D0
:1029A00010BC7047937A03F003030029E7D043F08B
:1029B0000403E4E7D36810BC023BD3607047D368DC
:1029C00010BC0233D3607047D36810BC0133D360AE
:1029D000704700BF509CFF1F1F4B10B49A6F1368C5
:1029E000506819780478507A137A044201EA030196
:1029F0001AD0937A03F0030309B143F0040343F0C0
:102A000008039910013B91720D2B0BD8DFE803F0FE
:102A10001E0719070A141E1E140A0719071ED36879
:102A2000013BD36010BC7047937A03F00303002985
:102A3000E7D043F00403E4E7D36810BC023BD36063
:102A40007047D36810BC0233D3607047D36810BCA2
:102A50000133D360704700BF509CFF1F1F4B10B461
:102A6000DA6F1368506819780478507A137A044240
:102A700001EA03011AD0937A03F0030309B143F08A
:102A8000040343F008039910013B91720D2B0BD8FE
:102A9000DFE803F01E0719070A141E1E140A07199F
:102AA000071ED368013BD36010BC7047937A03F0D4
:102AB00003030029E7D043F00403E4E7D36810BC24
:102AC000023BD3607047D36810BC0233D3607047B9
:102AD000D36810BC0133D360704700BF509CFF1F08
:102AE0001F4B10B4D3F8802013685068197804780D
:102AF000507A137A044201EA03011AD0937A03F060
:102B0000030309B143F0040343F008039910013BA8
:102B100091720D2B0BD8DFE803F01E0719070A147A
:102B20001E1E140A0719071ED368013BD36010BC90
:102B30007047937A03F003030029E7D043F00403BE
:102B4000E4E7D36810BC023BD3607047D36810BC85
:102B50000233D3607047D36810BC0133D360704731
:102B6000509CFF1F1F4B10B4D3F88420136850688B
:102B700019780478507A137A044201EA03011AD0D2
:102B8000937A03F0030309B143F0040343F008030D
:102B90009910013B91720D2B0BD8DFE803F01E0753
:102BA00019070A141E1E140A0719071ED368013BD1
:102BB000D36010BC7047937A03F003030029E7D079
:102BC00043F00403E4E7D36810BC023BD3607047D2
:102BD000D36810BC0233D3607047D36810BC013394
:102BE000D3607047509CFF1F2DE9F041632984B0EA
:102BF00003DD90F8F874002F53D0136805460F4694
:102C000010461B6805F223219847C2B2C0F3072182
:102C1000561885F81E2247F30722F643FF234FF08C
:102C2000FE0EFCB285F82222421C85F8206285F84F
:102C30001F1285F81C3285F81DE285F821420DDB54
:102C400000F22221294405F22123002201E013F899
:102C5000014F99422244FAD1D343DBB22A1800F142
:102C60000807B7F5007F82F823321EDC002F05F538
:102C7000077616DD0730DFF81081064405F21B24C5
:102C800003E007F0D3F8B4420BD06A6814F8011FD0
:102C900013681B6843450846F3D010469847B44272
:102CA000F3D1384604B0BDE8F081344A0192344C87
:102CB0002B68039403228DF808201B6831498B424E
:102CC00055D10023382185F8232204F1300E85F8F0
:102CD000241285F8253285F8263285F8273205F545
:102CE0000A7627460FCF774530607160B260F36097
:102CF0003C4606F11006F4D103CC00227160C223D9
:102D00004FF0FF0EFE273D240721306085F820326A
:102D100085F81CE285F81D7285F81E4285F81F2291
:102D200085F8222285F8211205F2212305F25F2081
:102D300001E013F8011F98420A44FAD1D243DFF8A8
:102D4000488085F8602205F21B2405F5187603E01B
:102D500007F06CF8B4420ED06A6814F8011F1368CB
:102D60001B6843450846F3D010469847F2E72846CB
:102D700001AA072198474FF0FF3093E76C06010046
:102D800038090100E92B0000A909000008B50E4828
:102D900004F07EFB0D4804F0C5FE0C4804F0E6FE8E
:102DA00008B9002008BD0A4804F0BCFE084804F039
:102DB000DDFE0028F5D0074804F0B4FE0548BDE864
:102DC000084004F0D3BE00BFFC87FF1FAC9BFF1F71
:102DD000649BFF1F4095FF1F10B5002382B0224A5D
:102DE0000260044601AA43608360C3600DF10201E2
:102DF0000DF106031D4804F0D5FEBDF9020008F0F0
:102E0000A7FC00221A4B08F009FD15A3D3E9002303
:102E100008F004FD08F0C4FF6060BDF9040008F08C
:102E200097FC0022124B08F0F9FC0DA3D3E9002314
:102E300008F0F4FC08F0B4FFA060BDF9060008F04B
:102E400087FC00220A4B08F0E9FC05A3D3E9002324
:102E500008F0E4FC08F0A4FFE060204602B010BDDA
:102E600000000060B89E2340B4060100AC9BFF1F29
:102E70000000103FFFFFFFFF10B5002382B0264A7D
:102E80000260044601AA43608360C3600DF1020141
:102E90000DF10603214804F0DFFEBDF9020008F041
:102EA00057FC19A3D3E9002308F0E2FD18A3D3E9E6
:102EB000002308F0B3FC08F073FF6060BDF9040064
:102EC00008F046FC10A3D3E9002308F0D1FD10A3BD
:102ED000D3E9002308F0A2FC08F062FFA060BDF96E
:102EE000060008F035FC08A3D3E9002308F0C0FD74
:102EF00007A3D3E9002308F091FC08F051FFE0603C
:102F0000204602B010BD00BF00000000006060401D
:102F1000000000A046DF913FB4060100649BFF1F44
:102F200010B5002382B0264A0260044601AA43601D
:102F30008360C3600DF102010DF10603214804F026
:102F400053FEBDF9020008F003FC19A3D3E90023E6
:102F500008F064FC18A3D3E9002308F05FFC08F034
:102F60001FFF6060BDF9040008F0F2FB10A3D3E975
:102F7000002308F053FC10A3D3E9002308F04EFC13
:102F800008F00EFFA060BDF9060008F0E1FB08A301
:102F9000D3E9002308F042FC07A3D3E9002308F09B
:102FA0003DFC08F0FDFEE060204602B010BD00BF11
:102FB000000000403333E33F000000A0F7C6B03EFE
:102FC000B40601004095FF1FF8B5044615460E46AD
:102FD000084602211F4605F089FE2846022105F019
:102FE00085FE9F4A276052F83610012301F50070D4
:102FF000E060237552F83520637502F500770020F4
:103000004BF680332761A061013BFDD191F800327E
:1030100092F8002203F00103D20744BF43F00203F9
:10302000DBB2A37504F10C07212E00F24983DFE81F
:1030300016F03C0333032A03210318030F0306038E
:10304000FD02F402EB02E202D9028C0283027A0250
:10305000710268025F0256024D0244023B023202D4
:103060002902200217020E020502FC01F301EA0107
:10307000E101D70122007B4B7B49C3F88470042215
:10308000212005F05DFC01232377212D00F216831A
:10309000DFE815F09C01920188017E0174016A014C
:1030A000600156014C01420138012E0124011A0130
:1030B0001001DB00D100C700BD00B300A9009F00D4
:1030C00095008B00810077006D00630059004F0070
:1030D00045003B0030002200624B6349C3F8847016
:1030E0000422212005F02CFC237F012213442377A6
:1030F0002046F8BD5B4B5D49C3F880700422202058
:1031000005F01EFC237F0122F0E7564B5849DF678C
:1031100004221F2005F014FC237F0122E6E7514B17
:1031200054499F6704221E2005F00AFC237F0122D8
:10313000DCE74C4B50495F6704221D2005F000FC82
:10314000237F0122D2E7474B4C491F6704221C20F2
:1031500005F0F6FB237F0122C8E7424B4849DF66B2
:1031600004221B2005F0ECFB237F0122BEE73D4B30
:1031700044499F6604221A2005F0E2FB237F0122C6
:10318000B4E7384B40495F660422192005F0D8FBAC
:10319000237F0122AAE7334B3C491F6604221820F3
:1031A00005F0CEFB237F0122A0E72E4B3849DF65D7
:1031B0000422172005F0C4FB237F012296E7294B48
:1031C00034499F650422162005F0BAFB237F0122B3
:1031D0008CE7244B30495F650422152005F0B0FBD5
:1031E000237F012282E71F4B2C491F6504221420F4
:1031F00005F0A6FB237F012278E71A4B2849DF64FC
:103200000422132005F09CFB237F01226EE7154B5F
:1032100024499F640422122005F092FB237F01229F
:1032200064E7104B20495F640422112005F088FBFD
:10323000237F01225AE70B4B1C491F6404221020F4
:1032400005F07EFB237F012250E7064B1849DF6320
:1032500004220F2005F074FB237F012246E700BF04
:10326000EC0A0100509CFF1F652B0000E12A0000C2
:103270005D2A0000D929000055290000D12800004E
:103280004D280000C92700001D22000099210000E0
:1032900015210000912000000D200000891F000072
:1032A000051F0000811E0000FD1D0000791D0000AB
:1032B000F51C0000A94BAA499F6304220E2005F0CB
:1032C0003FFB237F012211E7A44BA6495F63042241
:1032D0000D2005F035FB237F012207E79F4BA24914
:1032E0001F6304220C2005F02BFB237F0122FDE647
:1032F0009A4B9E49DF6204220B2005F021FB237FBD
:103300000122F3E6954B9A499F6204220A2005F0B8
:1033100017FB237F0122E9E6904B96495F62042266
:10332000092005F00DFB237F0122DFE68B4B92493C
:103330001F620422082005F003FB237F0122D5E64B
:10334000864B8E49DF610422072005F0F9FA237FBE
:103350000122CBE6814B8A499F610422062005F0B9
:10336000EFFA237F0122C1E67C4B86495F6104228C
:10337000052005F0E5FA237F0122B7E6774B824965
:103380001F610422104605F0DBFA237F0122ADE61F
:10339000724B7E49DF600422032005F0D1FA237FBF
:1033A0000122A3E66D4B7A499F600422022005F0BA
:1033B000C7FA237F012299E6684B76495F600422B1
:1033C000012005F0BDFA237F01228FE6634B72498D
:1033D0001F600422002005F0B3FA237F012285E656
:1033E0005E4B6E49C3F880700422202005F0A8FAD5
:1033F000012349E6594B6A49DF6704221F2005F083
:103400009FFA012340E6554B66499F6704221E2020
:1034100005F096FA012337E6504B63495F670422B3
:103420001D2005F08DFA01232EE64C4B5F491F67E6
:1034300004221C2005F084FA012325E6474B5C4951
:10344000DF6604221B2005F07BFA01231CE6434BB8
:1034500058499F6604221A2005F072FA012313E6E8
:103460003E4B55495F660422192005F069FA012395
:103470000AE63A4B51491F660422182005F060FA0B
:10348000012301E6354B4E49DF650422172005F084
:1034900057FA0123F8E5314B4A499F65042216206B
:1034A00005F04EFA0123EFE52C4B47495F650422F6
:1034B000152005F045FA0123E6E5284B43491F6531
:1034C0000422142005F03CFA0123DDE5234B40499A
:1034D000DF640422132005F033FA0123D4E51F4BE7
:1034E0003C499F640422122005F02AFA0123CBE50F
:1034F0001A4B39495F640422112005F021FA012397
:10350000C2E5164B35491F640422102005F018FA55
:103510000123B9E5114B3249DF6304220F2005F086
:103520000FFA0123B0E50D4B0D499F6304220E20D5
:1035300005F006FA0123A7E5084B0A495F63042258
:103540000D2005F0FDF901239EE5044B06491F639C
:1035500004220C2005F0F4F9012395E5509CFF1F8F
:10356000711C0000ED1B0000691B0000E51A000043
:10357000611A00003D260000B92500003525000035
:10358000B12400002D240000A92300002523000001
:10359000A122000045270000C1260000E12A00000A
:1035A0005D2A0000D929000055290000D12800001B
:1035B0004D280000C92700001D22000099210000AD
:1035C00015210000912000000D200000891F00003F
:1035D000051F0000811E0000FD1D0000791D000078
:1035E000F51C0000374B3849DF6204220B2005F040
:1035F000A7F9012348E5334B34499F6204220A208E
:1036000005F09EF901233FE52E4B31495F6204220C
:10361000092005F095F9012336E52A4B2D491F6253
:103620000422082005F08CF901232DE5254B2A49B9
:10363000DF610422072005F083F9012324E5214BF3
:1036400026499F610422062005F07AF901231BE533
:103650001C4B23495F610422052005F071F9012309
:1036600012E5184B1F491F610422104605F068F946
:10367000012309E5134B1C49DF600422032005F0F8
:103680005FF9012300E50F4B18499F6004220220D7
:1036900005F056F90123F7E40A4B15495F6004224F
:1036A000012005F04DF90123EEE4064B11491F609E
:1036B0000422002005F044F90123E5E4002215E589
:1036C0000023E1E4509CFF1FE51A0000611A00008E
:1036D0003D260000B925000035250000B12400007A
:1036E0002D240000A923000025230000A1220000B2
:1036F00045270000C12600002DE9F04F072193B0B7
:10370000C248C34C04F0E2FD5A21C04804F0E4FD75
:1037100000234FF46142A260C4F8E43404F27C4216
:10372000C4F8E834C4F8F034C4F8EC3402E00133EF
:10373000192B0AD052F8041F0029F8D103F5907113
:10374000B44A44F8212064335360B34A002302E0B2
:103750000133192B0AD052F8041F0029F8D103F5C0
:103760009071AE4A44F8212064335360AC4A002380
:1037700002E00133192B0BD052F8041F0029F8D1B5
:10378000A84A04EB83017D33C1F81C249360D46004
:10379000A34A002302E00133192B0BD052F8041F77
:1037A0000029F8D1A04A04EB83017D33C1F81C2421
:1037B0009360D4609D4B94F8F824DFF88CA29C4E63
:1037C000DFF8889202930192A3F50775019B002B05
:1037D00040F0E38033680A93DDF828B0D4F8003570
:1037E00042F6F822C3EB0B03934284BF9DF80430EA
:1037F00085F8F834D4F8E43433B1D5F804359B4572
:1038000084BF0023C5F8E434A2693AB133680E934B
:103810000E9BCBEB03039A42C0F0DA816068036829
:103820005B694B4554D106F017FA002853DBD4F8F6
:10383000F434D4F8E4240344072AC4F8F43400F040
:103840001D817AB9FF2800F02C8133680D930D9B00
:1038500041F28831CBEB03038B42D5D96C4B83F813
:10386000F824B7E7012A00F02481022A00F07581CC
:10387000032A00F07D81042A00F08481052A00F0EB
:103880009081062A00F09581082ABDD1694A1A4024
:1038900000239A42C4F8E434C0F2A481FF2AB3D1D1
:1038A000D4F8EC34002B00F0F2820A2B00F0A38154
:1038B000062B00F0E3810B2B00F09981BC3355F807
:1038C00023000028A0D003685B491B6898479BE74A
:1038D00098470028ABDA94F8F8340193002B3FF4B2
:1038E00079AFD5F8FC3440F6C412C3EB0B03934216
:1038F0007FF66CAFFF21FE27504B85F81C12082184
:10390000002285F81D7285F81E12F7270A2103F19F
:10391000090085F8232285F8242285F8252285F8D8
:10392000262285F8272285F8282285F8292285F87D
:103930002A2285F81F2285F8222285F8207285F830
:10394000211201E013F8011F98420A44FAD1029BA8
:10395000D24384F82B22984603F10F07FF2105E09C
:1039600006F064FAB8450BD018F8011F62681368B6
:103970001B6853450846F3D010469847B845F3D125
:1039800033680993099BE36094F8F8340193019B31
:10399000C4F8FCB4002B3FF41DAF294E294D0FCEC7
:1039A0000FC52B46326823F817290126FF21002274
:1039B000A8194FF0120EFE2784F82362E825172677
:1039C00084F81C12072184F824E284F8252284F864
:1039D000262284F8272284F81F2284F8222284F8E1
:1039E0001D7284F81E6284F8205284F8211201E0CE
:1039F00013F8011F98420A44FAD1029DD24384F879
:103A00003A2205F11E06FF2128E000BFDC94FF1FCB
:103A1000F895FF1FB894FF1F749AFF1F4494FF1F6F
:103A2000109AFF1F0C9CFF1F289CFF1F1498FF1F5C
:103A30000C9DFF1FFF0000801496FF1F1998FF1FA9
:103A4000740901002098FF1FA909000091070000D8
:103A500006F0ECF9B5420BD015F8011F6268136847
:103A60001B6853450846F3D010469847B542F3D13A
:103A7000012005F041F913B0BDE8F08FD5F8F0242E
:103A8000D5F8E834A918013B01320877C5F8F024CD
:103A9000C5F8E834002B7FF4B7AE0823C4F8E4344B
:103AA000B2E601220BF11403C5F8E424C5F804358D
:103AB000AAE6FE2871D095F8F8240023C5F8E4346E
:103AC000002A7FF4A1AEFF21FE27654B85F81C126A
:103AD000082185F81D7285F81E12F7270A2185F83E
:103AE000232285F8242285F8252285F8262285F8C8
:103AF000272285F8282285F8292285F82A2285F8A8
:103B00001F2285F8222203F1090085F8207285F82A
:103B1000211201E013F8011F83420A44FAD1029BEB
:103B2000D24384F82B221F4603F10F08FF2105E042
:103B300006F07CF947450BD017F8011F626813683F
:103B40001B6853450846F3D0104698474745F3D1C4
:103B500033680C930C9BE36056E600220323C5F800
:103B6000E804C5F8F404C5F8F024C5F8E4344BE6DD
:103B7000D5F8E83403EB00200423C5F8E804C5F8C1
:103B8000E43441E6374A1A40002A26DBFF2A0CBFFC
:103B900005230023C4F8E43436E60223C5F8E434F0
:103BA00032E60623C5F8EC04C5F8F404C5F8E4349D
:103BB0002AE6D5F8EC34D5F8E82403EB00230721F6
:103BC000C5F8EC34C5F8E414002A3FF466AF1BE6F0
:103BD000254B93F8F8340193F8E5013A62F0FF02BF
:103BE0000132D3E7013A62F0FF02013256E60023C8
:103BF00085F8F83408E633680F930F9BEA681B4892
:103C0000316811919B1A296ADFF868E0DFF8688053
:103C1000DDF844C0EA69A0FB0307BF094FF47A70DE
:103C20008E4400FB173308FB03E303930F4B10494B
:103C3000A3FB0C3E4FEA9E1E039B013A00FB1EC0F5
:103C40003A4408FB1033CEEB0202081F6B612A6175
:103C500003F050FF33681093109BC5F80035D3E58F
:103C60001998FF1FFF000080F895FF1FD34D6210C9
:103C70000C96FF1F00CA9A3B40420F00EF69D5F82F
:103C800010359F4206D9B900D5F8180508F012FF83
:103C9000C5F81805C4F81075002F00F0E680A14A99
:103CA000042302F2145E002792F8221092F821C039
:103CB00092F82000090441EA0C2192F823C0014344
:103CC00041EA0C61C4F81415D4F81815DEF80000A8
:103CD00041F82700D4F810050137B842194602F11F
:103CE000040203F10403DFD8059301F10B0301F192
:103CF000090201F10808049301F10C0303924746FD
:103D0000481D01F1060E01F1070C01F10A020693AC
:103D1000A644059B211823449EF81C0091F81CE042
:103D20001B7FD4F81C15A44400049CF81CC040EA76
:103D30000E20034343EA0C638B420AD99900D5F85D
:103D400024050792059308F0B5FE079A059BC5F870
:103D50002405C4F81C35002B00F0E280DFF8D0E128
:103D6000EB1900219A7F93F81DC0187F120442EAD4
:103D70000C2293F81FC0024342EA0C62C4F82025CB
:103D8000D4F82425DEF8000042F82100D4F81C25E0
:103D900001318A42384603F1040307F10407E1D8F0
:103DA000431D0393C31DB846821D049300F1080709
:103DB000039B23442244187F049B117FD4F82825B9
:103DC000A04423449E46090498F81C309EF81C80A9
:103DD00041EA00210B4343EA0868904507D94FEABE
:103DE0008801D5F8300508F065FEC5F83005C4F83F
:103DF0002885B8F1000F34D0DFF838E100210EF546
:103E0000A26C07F11C080023A0441A4618F8010B05
:103E100098400833202B42EA0002F7D1381D0244B3
:103E200090420AD207F11F0323440746013793F853
:103E3000018003F8018B9742F8D3A3184FF00007D5
:103E40000138DF767044D4F83035C4F82C05DCF83E
:103E5000000043F82100D4F8283501318B42174681
:103E6000CFD8012384F80835CEE40C2306930B2326
:103E7000049309234FF008080393042347460A22BA
:103E80004FF0070C4FF0060E0520059340E726483B
:103E9000A0F22A2100F8073CFE2781F81C224FF0EF
:103EA000080C0A4681F8243281F8253281F826323E
:103EB00081F8273281F8283281F8293281F82A32B4
:103EC00081F81D7281F81F3281F82232A0F1090EAB
:103ED000F72781F81EC20A2182F8207282F8211287
:103EE000724601E012F8011F90420B44FAD10F4FC5
:103EF000DB43A7F10F02029284F82B329046FF2198
:103F000005E005F093FFB84516D018F8011F626868
:103F100013681B6853450846F3D010469847F2E7EC
:103F2000069F45E7F895FF1F2298FF1F2398FF1F64
:103F3000189BFF1F1496FF1F33680B93D14BCDF8CE
:103F400004B01A460B9BE36093465BF8043F002BDA
:103F500000F0BF8058689A6801680392D3F8009017
:103F60008B689847DBF80030804658680368DB6848
:103F70009847DBF80030039A1E69632E074604DD7C
:103F800094F8F834002B00F0A480C2F307234846CD
:103F900084F8232284F8243208F0D2FF0346020A70
:103FA000000C4FEA136E494684F8262284F8270253
:103FB0001A46B54884F82532039384F828E204F0C1
:103FC0007FFB404608F0BCFF039B024603F229201A
:103FD00020440633002122FA01FE0831202900F88E
:103FE00001EBF8D1A94804334146184402EB030819
:103FF00004F066FB384608F0A3FF08F2232281464E
:104000002244002329FA03F10833202B02F8011B74
:10401000F8D19E4B08F10408394603EB08004A46E4
:1040200004F04EFB09EB0800071D5FFA87FCC7F39D
:10403000072E04EB00080CEB0E010022C9430223FB
:1040400088F8243288F8232288F8252288F8262246
:1040500084F82012F1B246F30726FF234FF0FE0842
:1040600084F822627E1C84F81EC284F81FE284F861
:104070001C3284F81D8284F821120BDB00F2262604
:10408000834B2E4401E013F8011FB3420A44FAD1D6
:10409000D343DBB2E2190837B7F5007F82F8233249
:1040A00000F34B81002F14DD00F22720794E2F18EA
:1040B00003E005F0BBFEBE420BD0626816F8011F9C
:1040C00013681B6853450846F3D010469847BE4214
:1040D000F3D1714B9B457FF438AF9B465BF8040FDF
:1040E000002800F0BF8090E80C0003939268D0F89D
:1040F000089090478046DBF800000268D26890473D
:104100000746DBF8000002685268904763280646BD
:10411000039B04DD94F8F824002A00F0A380C3F385
:104120000722484684F8233284F8242208F008FF46
:104130000346020A000C4FEA136E494684F8262211
:1041400084F827021A46504884F82532039384F8ED
:1041500028E204F0B5FA404608F0F2FE039B02465E
:1041600003F2292020440633002122FA01FE0831FF
:10417000202900F801EBF8D14448043341461844A3
:1041800002EB030804F09CFA384608F0D9FE08F266
:10419000232281462244002329FA03F10833202BED
:1041A00002F8011BF8D1394B08F10408394603EB3A
:1041B00008004A4604F084FA09EB0800071D5FFA7C
:1041C00087FCC7F3072E04EB00080CEB0E0100225E
:1041D000C943022388F8243288F8232288F825224C
:1041E00088F8262284F82012F1B246F30726FF232E
:1041F0004FF0FE0884F822627E1C84F81EC284F808
:104200001FE284F81C3284F81D8284F821120BDB33
:1042100000F226261E4B2E4401E013F8011FB34284
:104220000A44FAD1D343DBB2E2190837B7F5007F6D
:1042300082F8233234DC002F14DD00F22720154EE3
:104240002F1803E005F0F2FDB7420BD0626816F8B4
:10425000011F13681B6853450846F3D01046984762
:10426000B742F3D10D4B9B457FF438AFDDF804B076
:10427000C4F8FCB40123C4F800B584F8F834FFF79F
:104280008CBB00BF109AFF1F2198FF1F1B98FF1FB8
:104290001998FF1F1398FF1F749AFF1FD89AFF1FCA
:1042A0004D4F4E4E0FCF0FC60FCF0FC60FCF0FC6BD
:1042B00097E8030000234FF0030E3827FF2285F80C
:1042C00023E285F824724FF0FE0E3D2785F8253253
:1042D00085F8263285F8273286E80300C22185F862
:1042E0001C220722F01D85F81F3285F82232373E46
:1042F00085F81DE285F81E7285F8201285F82122C6
:1043000001E016F8012FB0421344FAD1344EDB43DA
:1043100084F86032A6F14407FF2005E005F086FD31
:10432000BE429FD017F8010F626813681B6853459F
:104330000146F3D010469847F2E7274F274E0FCF9C
:104340000FC60FCF0FC60FCF0FC697E8030000238D
:104350004FF0030E3827FF2285F823E285F82472F8
:104360004FF0FE0E3D2785F8253285F8263285F878
:10437000273286E80300C22185F81C220722F01D9F
:1043800085F81F3285F82232373E85F81DE285F820
:104390001E7285F8201285F8212201E016F8012FFF
:1043A00086421344FAD10E4EDB4384F86032A6F104
:1043B0004407FF2006E005F039FDB7423FF489AE1F
:1043C00017F8010F626813681B6853450146F2D065
:1043D00010469847F1E700BF380901002098FF1FF9
:1043E0005898FF1F2DE9F04784B0194D6846FEF735
:1043F000F3FC0199029A039BA9606846EA602B616D
:10440000FEF73AFD0199029A039BA961EA612B62CA
:104410006846FEF785FD0F4B0F4ADC68DDF8049017
:104420002168DDF80880D1F800A0039F9E68C5F8D8
:1044300028909245C5F82C802F6340F01482632E9B
:104440000CDD94F8F834002B00F0BE8106E000BFCC
:10445000309BFF1F289CFF1FE92B0000A868C0F3BA
:10446000C7520346002A40F0B28192461146C3F378
:10447000C34211434FEA431E002284F82912D91087
:10448000DB1284F8271284F8232284F8242284F88B
:10449000252284F826E284F82832002107F07CFFE8
:1044A000002840F0C28184F82AA2E868C0F3C7520D
:1044B0000346002A00F0958102F56072110149B2AD
:1044C000C2F3071AC3F3C34211434FEA431E00224B
:1044D00084F83112D910DB1284F82F1284F82B22C1
:1044E00084F82C2284F82D2284F82EE284F83032CD
:1044F000002107F051FF002840F0B08184F832A27B
:104500002869C0F3C7520346002A00F0708102F503
:104510006072110149B2C2F3071AC3F3C3421143D7
:104520004FEA431E002284F83912D910DB1284F8B6
:10453000371284F8332284F8342284F8352284F840
:1045400036E284F83832002107F026FF002840F0D8
:10455000808184F83AA2A869C0F3C7520346002AB2
:1045600000F0428102F56072110149B2C2F3071AEC
:10457000C3F3C34211434FEA431E002284F84112A1
:10458000D910DB1284F83F1284F83B2284F83C22D5
:1045900084F83D2284F83EE284F84032002107F09E
:1045A000FBFE002840F0378184F842A2E869C0F39E
:1045B000C7520346002A00F0268102F560721101FD
:1045C00049B2C2F3071AC3F3C34211434FEA431E71
:1045D000002284F84912D910DB1284F8471284F8BB
:1045E000432284F8442284F8452284F846E284F881
:1045F0004832002107F0D0FE002840F0078184F8FF
:104600004AA2286AC0F3C7520346002A00F0F88085
:1046100002F56072110149B2C2F30715C3F3C34238
:1046200011434FEA431E002284F85112D910DB12C5
:1046300084F84F1284F84B2284F84C2284F84D22DF
:1046400084F84EE284F85032002107F0A5FE0028DD
:1046500040F0FA8084F85252C9F3C7524B46002A00
:1046600000F0CB8002F56072110149B2C2F3071568
:10467000C3F3C34211434FEA431E002284F8591288
:10468000D910DB1284F85712484684F8532284F874
:10469000542284F8552284F856E284F858320021D6
:1046A00007F07AFE002840F0CA8084F85A52C8F316
:1046B000C7524346002A00F09D8002F56072150142
:1046C0006DB2C2F30719C3F3C3410D434FEA431E52
:1046D0000021DA10DB1284F85B1284F85C1284F893
:1046E0005D12404684F8615284F85EE284F85F22ED
:1046F00084F86032002107F04FFE002840F09080DF
:1047000084F86292C7F3C7523B46002A66D002F58E
:104710006072110149B2C2F30715C3F3C3421143DA
:104720004FEA431E002284F86912D910DB1284F884
:104730006712384684F8632284F8642284F865227C
:1047400084F866E284F86832002107F025FE00282C
:1047500070D184F86A524820B723F1B2FF27FE25B2
:10476000002246F3072684F81E0284F8203284F8DB
:104770001C7284F81D5284F81F2284F8211284F8D8
:10478000226204F2212304F26A2001E013F8011FDF
:1047900098420A44FAD1D243364E84F86B2204F28E
:1047A0001B2504F26B2703E005F040FBBD420BD054
:1047B000626815F8011F13681B68B3420846F3D0FE
:1047C00010469847BD42F3D104B0BDE8F08702F52A
:1047D0006072110149B2C2F3071A48E61546114644
:1047E0009BE7924611466DE692461146C0E6924618
:1047F000114692E69146154665E71546114637E79C
:10480000154611460AE792461146DCE66AF07F0239
:1048100084F84A22F5E66AF07F0284F84222C5E66F
:1048200069F07F0284F862226CE76AF07F0284F804
:104830002A223AE665F07F0284F86A228BE765F067
:104840007F0284F85A2232E765F07F0284F8522210
:1048500002E76AF07F0284F83A227CE66AF07F027F
:1048600084F832224CE62A4631462046D04704B02E
:10487000BDE8F087A909000038B51849054607F0DA
:104880008BFD20BB04461649284607F0A3FDB8B9A6
:104890001349284607F0DAFA124907F0DFFB1249FC
:1048A00007F090FC114907F0D1FA114907F0D6FB47
:1048B00007F09AFD01460F4803F00EFD284638BD6B
:1048C000074D0C48214603F007FD284638BD034D2F
:1048D0000848B42103F000FD284638BDE17AD4BE73
:1048E000E17AD43EDB0F49C0E17A543FDB0F494007
:1048F000E02E6542DC94FF1F2DE9F04FDFF8D4A2D3
:10490000A14BA24ADAF80010A14C1B68126893B0C0
:104910000EA800919F4903F099FB237F012B40F2E1
:10492000CD8172B6A76962B69B4E606833680A9300
:10493000DDF828B0994DC0EB0B0006F0F9FE90A30E
:10494000D3E9002307F094F8CDE90201A068381AF2
:1049500006F0FEFEC4F804B08046A76020688946D1
:1049600006F0F6FE02460B464046494607F080F840
:10497000DDE9022307F07CF807F0EAF92B7F012B31
:10498000804640F2D58172B6AF6962B6336809934A
:10499000DDF824906868824CC0EB090006F0C8FE80
:1049A00077A3D3E9002307F063F8CDE90201A868F3
:1049B000381A06F0CDFEC5F80490CDE90401AF60C9
:1049C000286806F0C5FE02460B46DDE9040107F043
:1049D0004FF8DDE9022307F04BF807F0B9F9237F20
:1049E000012B814640F2DE8172B6A76962B6336858
:1049F0000893DDF820B060686A4DC0EB0B0006F04C
:104A000097FE5FA3D3E9002307F032F8CDE9020156
:104A1000A068381A06F09CFEA760CDE90401C4F82E
:104A200004B0206806F094FE02460B46DDE904015E
:104A300007F01EF8DDE9022307F01AF807F088F9FD
:104A40002B7F012B074640F2E58172B6AC6962B656
:104A5000336807936868DDF81CB04E4EC0EB0B005E
:104A600006F066FE46A3D3E9002307F001F8CDE97E
:104A70000201A868201A06F06BFEAC60CDE90401C3
:104A8000C5F804B0286806F063FE02460B46DDE96F
:104A9000040106F0EDFFDDE9022306F0E9FF07F06F
:104AA00057F90446404607F085FA05460E9807F088
:104AB00081FA2A4601463C4803F070FD07F048F9A8
:104AC00001463A4803F012FD484607F073FA0546DE
:104AD0000F9807F06FFA2A460146354803F05EFD4D
:104AE00007F036F90146334803F000FD384607F079
:104AF00061FA0546109807F05DFA2A4601462E48ED
:104B000003F04CFD07F024F901462C4803F0EEFCBD
:104B1000204607F04FFA0546119807F04BFA2A464F
:104B20000146274803F03AFD07F012F901462548EF
:104B300003F0DCFC3378023B012B40F2B28001949D
:104B400000974B46424631460BA803F0DFFA1E4958
:104B50001E4FCC681E4D23680B981E680C9A0D9B47
:104B600089686860BE42AA60EB6040F09480632967
:104B700032DD94F8F854002D00F08A802CE000BF5C
:104B800000000000004CED40249CFF1F209CFF1FF4
:104B90006895FF1F7C94FF1F0C9DFF1FD895FF1F7A
:104BA0009894FF1FB895FF1F789BFF1FF894FF1F75
:104BB000C89BFF1F5495FF1F1095FF1F3C9CFF1FB4
:104BC0008895FF1FF89BFF1F0C9CFF1FE92B00001F
:104BD000E894FF1F2C9BFF1F060A050C4FEA106E7E
:104BE000170A84F8230284F82722180C84F8246218
:104BF00084F82552160C1D0A120E84F82B3284F804
:104C000026E21B0E84F828724FF0FF0E84F829620A
:104C1000FE2784F82A220C2684F82C52002284F8DD
:104C20002D02F325C8B241F3072184F82E3284F80F
:104C3000221284F81CE284F81D7284F81E6284F843
:104C40001F2284F8205284F8210204F2212304F266
:104C50002E2101E013F8010F99420244FAD1D24308
:104C6000B74E84F82F2204F21B2504F22F2703E00D
:104C700005F0DCF8AF420BD0626815F8011F13682D
:104C80001B68B3420846F3D010469847AF42F3D1B1
:104C900013B0BDE8F08F2A462046B04713B0BDE8F8
:104CA000F08FDAF80000FFF7E7FDCDF8009002463C
:104CB000434631460BA803F0EDF948E772B6E368C6
:104CC00021691A780878617D237D084202EA03028F
:104CD00000F0F180A37D03F003030AB143F0040365
:104CE00043F008039A10013BA2750D2B3FF61AAE54
:104CF00001A252F823F000BF454F0000394F0000D9
:104D0000314F0000394F000025490000294F0000B5
:104D1000454F0000454F0000294F00002549000085
:104D2000394F0000314F0000394F0000454F00005F
:104D300072B6EB6829691A780878697D2B7D08427C
:104D400002EA030200F0AE80AB7D03F003030AB178
:104D500043F0040343F008039A10013BAA750D2B9E
:104D60003FF612AE01A252F823F000BF214F00001F
:104D7000194F0000114F0000194F00008949000031
:104D8000094F0000214F0000214F0000094F000093
:104D900089490000194F0000114F0000194F000011
:104DA000214F000072B6E36821691A780878617DA6
:104DB000237D084202EA030264D0A37D03F00303CB
:104DC0000AB143F0040343F008039A10013BA275B3
:104DD0000D2B3FF60AAE01A252F823F0014F00005E
:104DE000F94E0000F14E0000F94E0000EB490000C2
:104DF000E94E0000014F0000014F0000E94E0000A5
:104E0000EB490000F94E0000F14E0000F94E0000A1
:104E1000014F000072B6EB6829691A780878697D3D
:104E20002B7D084202EA030234D0AB7D03F003037A
:104E3000002A40F08B8043F008039A10013BAA75CA
:104E40000D2B3FF603AE01A252F823F0E14E000015
:104E5000D94E0000D14E0000D94E00004D4A00004E
:104E6000C94E0000E14E0000E14E0000C94E0000B6
:104E70004D4A0000D94E0000D14E0000D94E00002E
:104E8000E14E0000A37D03F00303002A9DD043F010
:104E900004039AE7AB7D03F00303002ACDD043F06F
:104EA0000403CAE7AB7D03F00303002A3FF454AFC9
:104EB00043F0040350E7A37D03F00303002A3FF40B
:104EC00011AF43F004030DE7AC69023CAC61BEE5F1
:104ED000AC690234AC61BAE5AC69013CAC61B6E5E1
:104EE000AC690134AC61B2E5A769023FA7617DE519
:104EF000A7690237A76179E5A769013FA76175E551
:104F0000A7690137A76171E5AF69023FAF613CE571
:104F1000AF690237AF6138E5AF69013FAF6134E592
:104F2000AF690137AF6130E5A769023FA761FAE4D5
:104F3000A7690237A761F6E4A769013FA761F2E418
:104F4000A9090000A7690137A761ECE443F0040355
:104F500071E700BF2DE9F041CB4B1A7F012A8EB0DB
:104F600040F2D28172B69A6962B6C84DC84901A8AA
:104F700007F0AAFF012301A885F8233207F0E0FF1C
:104F80000446260C000A230E01A9224685F82502B4
:104F900085F8266205F50A70661D85F8273285F8C2
:104FA000244203F08DFBF1B2C6F307200A18FE235A
:104FB000D24385F81D3285F81E12FF23072185F89C
:104FC0002022771C4FF0000285F81F0285F81C3262
:104FD00085F8211285F82222C0F22A8404F22720C3
:104FE000284405F2212301E013F8011F98420A44E6
:104FF000FAD1D243D2B2A91906F10803B3F5007F62
:1050000081F82322A14E00F3C982002B17DD04F59D
:105010000A7406EB04089F4F06F21B2403E004F019
:1050200005FF44450BD06A6814F8011F13681B681C
:10503000BB420846F3D0104698474445F3D1964BFF
:105040001A7F012A40F29A8172B69A6962B6934930
:105050008E4C01A807F038FF012301A885F8233200
:1050600007F06EFF0646370C000A330E324601A9E0
:1050700085F8250285F8267204F50A70771D85F8F3
:10508000273285F8246203F01BFBF9B2C7F307202F
:105090000A18FE23D24385F81D3285F81E12FF231D
:1050A000072185F8202285F81F020022781C85F848
:1050B0001C3285F8211285F82222C0F2B38306F251
:1050C0002720204404F2212301E013F8011F83422A
:1050D0000A44FAD1D243D2B2EB190837B7F5007FB0
:1050E00083F82322694C00F3AA82002F16DD06F50F
:1050F0000A762644674F04F21B2403E004F096FE70
:10510000B4420BD06A6814F8011F13681B68BB42D5
:105110000846F3D010469847B442F3D1604B1A7F4B
:10512000012A40F2658172B69A6962B65D49574CB0
:1051300001A807F0C9FE012301A885F8233207F072
:10514000FFFE0646370C000A330E324601A985F8E9
:10515000250285F8267204F50A70771D85F8273236
:1051600085F8246203F0ACFAF9B2C7F307200A18F5
:10517000FE23D24385F81D3285F81E12FF23072136
:1051800085F8202285F81F020022781C85F81C3241
:1051900085F8211285F82222C0F2488306F22720E2
:1051A000204404F2212301E013F8011F98420A442D
:1051B000FAD1D243D2B2EB190837B7F5007F83F8A2
:1051C0002322324C00F38C82002F16DD06F50A767E
:1051D0002644304F04F21B2403E004F027FEB442BF
:1051E0000BD06A6814F8011F13681B68BB4208469D
:1051F000F3D010469847B442F3D12B4B1A7F012AC3
:1052000040F22E8172B69A6962B628491F4C01A8F5
:1052100007F05AFE012301A885F8233207F090FE1B
:105220000646370C000A330E01A9324685F82502DE
:1052300085F8267204F50A70771D85F8273285F8FF
:10524000246203F03DFAF9B2C7F307200A18FE23DF
:10525000D24385F81D3285F81E12FF23072185F8F9
:10526000202285F81F020022781C85F81C3285F860
:10527000211285F82222C0F2D78206F2272020448C
:1052800004F2212316E000BF6895FF1FF895FF1F69
:1052900088090100A9090000D895FF1FA409010091
:1052A0009894FF1FC0090100B895FF1FDC09010099
:1052B00013F8011F83420A44FAD1D243D2B2EB1948
:1052C0000837B7F5007F83F82322B24C00F35982E8
:1052D000002F16DD06F50A762644AF4F04F21B2494
:1052E00003E004F0A3FDB4420BD06A6814F8011F78
:1052F00013681B68BB420846F3D010469847B44277
:10530000F3D10EB0BDE8F08172B6DA681869117891
:105310000478587D1A7D044201EA020100F0E7801A
:105320009A7D02F0030209B142F0040242F0080241
:105330009110013A99750D2A3FF615AE01A151F869
:1053400022F000BF435500003B55000033550000DC
:105350003B550000674F00002B55000043550000EF
:10536000435500002B550000674F00003B550000DF
:10537000335500003B5500004355000072B6DA6813
:10538000186911780478587D1A7D044201EA0201F7
:1053900000F0A4809A7D02F0030209B142F00402F9
:1053A00042F008029110013A99750D2A3FF64DAE70
:1053B00001A151F822F000BF235500001B55000049
:1053C000135500001B5500004B5000006B550000AA
:1053D00023550000235500006B5500004B50000082
:1053E0001B550000135500001B55000023550000FD
:1053F00072B6DA68186911780478587D1A7D04420B
:1054000001EA020162D09A7D02F0030209B142F082
:10541000040242F008029110013A99750D2A3FF6F4
:1054200083AE01A151F822F0635500005B550000E6
:10543000535500005B550000295100004B550000FA
:1054400063550000635500004B55000029510000D2
:105450005B550000535500005B550000635500008C
:1054600072B6DA68186911780478587D1A7D04429A
:1054700001EA020144D19A7D02F00302002940F0C2
:10548000DA819110013A99750D2A3FF6BCAE01A15F
:1054900051F822F08B550000835500007B55000029
:1054A0008355000007520000735500008B55000023
:1054B0008B55000073550000075200008355000013
:1054C0007B550000835500008B5500009A7D02F04B
:1054D000030200299FD042F004029CE79A7D02F06B
:1054E000030200293FF45EAF42F004025AE79A7DBE
:1054F00002F0030200293FF41BAF42F0040217E759
:105500009A7D02F0030209B142F0040242F008025F
:10551000B7E79A6902329A6198E59A69013A9A6105
:1055200094E59A6901329A6190E59A69023A9A6122
:105530001AE59A6902329A6116E59A69013A9A6106
:1055400012E59A6901329A610EE59A69023A9A6106
:10555000EBE59A6902329A61E7E59A69013A9A6144
:10556000E3E59A6901329A61DFE59A69023A9A6144
:105570006CE59A69023A9A6146E69A6902329A6142
:1055800042E69A69013A9A613EE69A6901329A6165
:105590003AE600BFF895FF1FA9090000A74F0FCFFB
:1055A00006F50A740FC40FCF0FC40FCF0FC497E8CE
:1055B000030000220327382386F8237286F824325A
:1055C0004FF0FF0C4FF0FE0E3D2786F8252286F89F
:1055D000262286F8272284E80300C2200721A4F1AE
:1055E000370386F81F2286F82222073486F81CC269
:1055F00086F81DE286F81E7286F8200286F82112CF
:1056000001E013F8011FA3420A44FAD18C4C8D4FDC
:10561000D24385F8602204F14406FF2006E004F03E
:1056200005FCA6423FF40BAD14F8010F6A6813683D
:105630001B68BB420146F2D010469847F1E77F4F06
:105640000FCF04F50A760FC60FCF0FC60FCF0FC6C8
:1056500097E8030000220327382384F8237284F894
:1056600024324FF0FF0C4FF0FE0E3D2784F8252228
:1056700084F8262284F8272286E80300C220072126
:10568000A6F1370384F81F2284F82222073684F813
:105690001CC284F81DE284F81E7284F8200284F88B
:1056A000211201E013F8011F9E420A44FAD1644C12
:1056B000644FD24385F8602204F14406FF2006E0DF
:1056C00004F0B4FBA6423FF429AD14F8010F6A6858
:1056D00013681B68BB420146F2D010469847F1E7B9
:1056E000564F0FCF04F50A760FC60FCF0FC60FCF58
:1056F0000FC697E8030000220327382384F823729B
:1057000084F824324FF0FF0C4FF0FE0E3D2784F852
:10571000252284F8262284F8272286E80300C22066
:105720000721A6F1370384F81F2284F822220736C6
:1057300084F81CC284F81DE284F81E7284F82002EA
:1057400084F8211201E013F8011F9E420A44FAD1A5
:105750003B4C3C4FD24385F8602204F14406FF20C5
:1057600006E004F063FBB4423FF447AD14F8010FC8
:105770006A6813681B68BB420146F2D0104698471E
:10578000F1E72E4F0FCF04F50A760FC60FCF0FC6E5
:105790000FCF0FC697E8030000220327382384F8B1
:1057A000237284F824324FF0FF0C4FF0FE0E3D2799
:1057B00084F8252284F8262284F8272286E803002C
:1057C000C2200721A6F1370384F81F2284F8222281
:1057D000073684F81CC284F81DE284F81E7284F82F
:1057E000200284F8211201E013F8011F9E420A44AE
:1057F000FAD1134C134FD24385F8602204F14406CA
:10580000FF2006E004F012FBB4423FF47AAD14F836
:10581000010F6A6813681B68BB420146F2D010464C
:105820009847F1E71A4657E41A4648E51A46C2E493
:105830001A46FFF7E0BB42F0040222E638090100F5
:105840001498FF1FA90900002DE9F04FB94EBA4C7A
:105850003368226897B00493049B9B1A312B00F2A3
:1058600034823368B54A0693069B12689B1AB3F5D7
:10587000C87F06D3B248B349B34A002303600B6024
:1058800013603368B14F0793079B3A689B1A312B1B
:1058900000F2A981AE4C3368AE4D0993099B2A688A
:1058A000A44F9B1AC72B05D9FFF754FB3B680A93FB
:1058B0000A9B2B6033680B930B9FD4F80035A449E7
:1058C000FB1A42F6F822934284BF002381F8F83491
:1058D000D4F8E4349E4A33B1D2F804359F4284BFF1
:1058E0000023C2F8E434DFF87882994DA2692AB126
:1058F00033680F930F9BDB1B9A4221D360680368C8
:105900005B6943456AD104F0A7F9002869DBD4F844
:10591000F434D4F8E424DFF838E20344072AC4F866
:10592000F43449D07AB9FF2800F0B88033680E9378
:105930000E9B41F28831DB1B8B42D7D98EF8F824BD
:1059400017B0BDE8F08F012A00F0B080022A00F005
:105950001D81032A00F02581042A00F02C81052AEC
:1059600000F03981062A00F0A181082ABED17A4AC6
:105970001A4000239A42C4F8E434C0F20B82FF2A92
:10598000B4D1D4F8EC34DFF8C8A1002B00F06A835E
:105990000A2B00F00882062B00F04E820B2B00F041
:1059A000FE81BC3355F8230000289FD003680AF11C
:1059B0001C011B68984799E7D5F8F024D5F8E8341E
:1059C000A918013B01320877C5F8F024C5F8E8347E
:1059D000002B8BD10823C4F8E43487E798470028CC
:1059E00095DA94F8F8345A48002BA9D0D0F8FC3452
:1059F00040F6C412FB1A9342A2D9FF23FE210022D3
:105A000080F81C3280F81D12F72308250A2180F83F
:105A1000203280F8232280F8242280F8252280F882
:105A2000262280F8272280F8282280F8292280F870
:105A30002A2280F81F2280F8222280F81E5280F845
:105A4000211200F2212300F22A2001E013F8011FA5
:105A500083420A44FAD1DFF80C81404DD24384F8E6
:105A60002B2208F10F09FF2005E004F0DFF9C14502
:105A70000BD018F8010F626813681B68AB4201462F
:105A8000F3D010469847C145F3D133681393139B65
:105A9000C4F8FC74E36017B0BDE8F08F012207F191
:105AA0001403C5F8E424C5F804351FE7FE2800F008
:105AB0008E8095F8F8240023C5F8E434002A7FF49A
:105AC00015AFFF23FE21082085F81C3285F81D1232
:105AD000F7230A2185F8203285F823220EF22123AC
